{
	"contracts/counter.sol": {
		"Counter": {
			"abi": [
				{
					"inputs": [
						{
							"internalType": "uint256",
							"name": "n",
							"type": "uint256"
						}
					],
					"name": "decrement",
					"outputs": [],
					"stateMutability": "nonpayable",
					"type": "function"
				},
				{
					"inputs": [],
					"name": "get",
					"outputs": [
						{
							"internalType": "uint256",
							"name": "",
							"type": "uint256"
						}
					],
					"stateMutability": "view",
					"type": "function"
				},
				{
					"inputs": [
						{
							"internalType": "uint256",
							"name": "n",
							"type": "uint256"
						}
					],
					"name": "increment",
					"outputs": [],
					"stateMutability": "nonpayable",
					"type": "function"
				},
				{
					"inputs": [
						{
							"internalType": "uint256",
							"name": "x",
							"type": "uint256"
						}
					],
					"name": "initialize",
					"outputs": [],
					"stateMutability": "nonpayable",
					"type": "function"
				}
			],
			"devdoc": {
				"kind": "dev",
				"methods": {},
				"version": 1
			},
			"evm": {
				"assembly": "    /* \"contracts/counter.sol\":128:408  contract Counter {... */\n  mstore(0x40, 0x80)\n  callvalue\n  dup1\n  iszero\n  tag_1\n  jumpi\n  0x00\n  dup1\n  revert\ntag_1:\n  pop\n  dataSize(sub_0)\n  dup1\n  dataOffset(sub_0)\n  0x00\n  codecopy\n  0x00\n  return\nstop\n\nsub_0: assembly {\n        /* \"contracts/counter.sol\":128:408  contract Counter {... */\n      mstore(0x40, 0x80)\n      callvalue\n      dup1\n      iszero\n      tag_1\n      jumpi\n      0x00\n      dup1\n      revert\n    tag_1:\n      pop\n      jumpi(tag_2, lt(calldatasize, 0x04))\n      shr(0xe0, calldataload(0x00))\n      dup1\n      0x3a9ebefd\n      eq\n      tag_3\n      jumpi\n      dup1\n      0x6d4ce63c\n      eq\n      tag_4\n      jumpi\n      dup1\n      0x7cf5dab0\n      eq\n      tag_5\n      jumpi\n      dup1\n      0xfe4b84df\n      eq\n      tag_6\n      jumpi\n    tag_2:\n      0x00\n      dup1\n      revert\n        /* \"contracts/counter.sol\":349:406  function decrement (uint n) public {... */\n    tag_3:\n      tag_7\n      tag_8\n      calldatasize\n      0x04\n      tag_9\n      jump\t// in\n    tag_8:\n      tag_10\n      jump\t// in\n    tag_7:\n      stop\n        /* \"contracts/counter.sol\":210:269  function get() view public returns (uint) {... */\n    tag_4:\n        /* \"contracts/counter.sol\":246:250  uint */\n      0x00\n        /* \"contracts/counter.sol\":261:266  value */\n      sload\n        /* \"contracts/counter.sol\":210:269  function get() view public returns (uint) {... */\n      mload(0x40)\n        /* \"#utility.yul\":345:370   */\n      swap1\n      dup2\n      mstore\n        /* \"#utility.yul\":333:335   */\n      0x20\n        /* \"#utility.yul\":318:336   */\n      add\n        /* \"contracts/counter.sol\":210:269  function get() view public returns (uint) {... */\n      mload(0x40)\n      dup1\n      swap2\n      sub\n      swap1\n      return\n        /* \"contracts/counter.sol\":270:348  function increment (uint n) public {... */\n    tag_5:\n      tag_7\n      tag_16\n      calldatasize\n      0x04\n      tag_9\n      jump\t// in\n    tag_16:\n      tag_17\n      jump\t// in\n        /* \"contracts/counter.sol\":159:209  function initialize (uint x) public {... */\n    tag_6:\n      tag_7\n      tag_19\n      calldatasize\n      0x04\n      tag_9\n      jump\t// in\n    tag_19:\n        /* \"contracts/counter.sol\":197:202  value */\n      0x00\n        /* \"contracts/counter.sol\":197:206  value = x */\n      sstore\n        /* \"contracts/counter.sol\":159:209  function initialize (uint x) public {... */\n      jump\n        /* \"contracts/counter.sol\":349:406  function decrement (uint n) public {... */\n    tag_10:\n        /* \"contracts/counter.sol\":402:403  n */\n      dup1\n        /* \"contracts/counter.sol\":394:399  value */\n      sload(0x00)\n        /* \"contracts/counter.sol\":394:403  value - n */\n      tag_22\n      swap2\n      swap1\n      tag_23\n      jump\t// in\n    tag_22:\n        /* \"contracts/counter.sol\":386:391  value */\n      0x00\n        /* \"contracts/counter.sol\":386:403  value = value - n */\n      sstore\n      pop\n        /* \"contracts/counter.sol\":349:406  function decrement (uint n) public {... */\n      jump\t// out\n        /* \"contracts/counter.sol\":270:348  function increment (uint n) public {... */\n    tag_17:\n        /* \"contracts/counter.sol\":323:324  n */\n      dup1\n        /* \"contracts/counter.sol\":315:320  value */\n      sload(0x00)\n        /* \"contracts/counter.sol\":315:324  value + n */\n      tag_22\n      swap2\n      swap1\n      tag_27\n      jump\t// in\n        /* \"#utility.yul\":14:194   */\n    tag_9:\n        /* \"#utility.yul\":73:79   */\n      0x00\n        /* \"#utility.yul\":126:128   */\n      0x20\n        /* \"#utility.yul\":114:123   */\n      dup3\n        /* \"#utility.yul\":105:112   */\n      dup5\n        /* \"#utility.yul\":101:124   */\n      sub\n        /* \"#utility.yul\":97:129   */\n      slt\n        /* \"#utility.yul\":94:146   */\n      iszero\n      tag_32\n      jumpi\n        /* \"#utility.yul\":142:143   */\n      0x00\n        /* \"#utility.yul\":139:140   */\n      dup1\n        /* \"#utility.yul\":132:144   */\n      revert\n        /* \"#utility.yul\":94:146   */\n    tag_32:\n      pop\n        /* \"#utility.yul\":165:188   */\n      calldataload\n      swap2\n        /* \"#utility.yul\":14:194   */\n      swap1\n      pop\n      jump\t// out\n        /* \"#utility.yul\":381:508   */\n    tag_29:\n        /* \"#utility.yul\":442:452   */\n      0x4e487b71\n        /* \"#utility.yul\":437:440   */\n      0xe0\n        /* \"#utility.yul\":433:453   */\n      shl\n        /* \"#utility.yul\":430:431   */\n      0x00\n        /* \"#utility.yul\":423:454   */\n      mstore\n        /* \"#utility.yul\":473:477   */\n      0x11\n        /* \"#utility.yul\":470:471   */\n      0x04\n        /* \"#utility.yul\":463:478   */\n      mstore\n        /* \"#utility.yul\":497:501   */\n      0x24\n        /* \"#utility.yul\":494:495   */\n      0x00\n        /* \"#utility.yul\":487:502   */\n      revert\n        /* \"#utility.yul\":513:641   */\n    tag_23:\n        /* \"#utility.yul\":580:589   */\n      dup2\n      dup2\n      sub\n        /* \"#utility.yul\":601:612   */\n      dup2\n      dup2\n      gt\n        /* \"#utility.yul\":598:635   */\n      iszero\n      tag_37\n      jumpi\n        /* \"#utility.yul\":615:633   */\n      tag_37\n      tag_29\n      jump\t// in\n    tag_37:\n        /* \"#utility.yul\":513:641   */\n      swap3\n      swap2\n      pop\n      pop\n      jump\t// out\n        /* \"#utility.yul\":646:771   */\n    tag_27:\n        /* \"#utility.yul\":711:720   */\n      dup1\n      dup3\n      add\n        /* \"#utility.yul\":732:742   */\n      dup1\n      dup3\n      gt\n        /* \"#utility.yul\":729:765   */\n      iszero\n      tag_37\n      jumpi\n        /* \"#utility.yul\":745:763   */\n      tag_37\n      tag_29\n      jump\t// in\n\n    auxdata: 0xa26469706673582212204c975a08e3c530184f2ece8e311f388ba1619619d42d663952a5fa221b2f479364736f6c63430008190033\n}\n",
				"bytecode": {
					"linkReferences": {},
					"object": "6080604052348015600e575f80fd5b506101488061001c5f395ff3fe608060405234801561000f575f80fd5b506004361061004a575f3560e01c80633a9ebefd1461004e5780636d4ce63c146100635780637cf5dab014610077578063fe4b84df1461008a575b5f80fd5b61006161005c3660046100bb565b61009c565b005b5f5460405190815260200160405180910390f35b6100616100853660046100bb565b6100ae565b6100616100983660046100bb565b5f55565b805f546100a991906100e6565b5f5550565b805f546100a991906100ff565b5f602082840312156100cb575f80fd5b5035919050565b634e487b7160e01b5f52601160045260245ffd5b818103818111156100f9576100f96100d2565b92915050565b808201808211156100f9576100f96100d256fea26469706673582212204c975a08e3c530184f2ece8e311f388ba1619619d42d663952a5fa221b2f479364736f6c63430008190033",
					"opcodes": "PUSH1 0x80 PUSH1 0x40 MSTORE CALLVALUE DUP1 ISZERO PUSH1 0xE JUMPI PUSH0 DUP1 REVERT JUMPDEST POP PUSH2 0x148 DUP1 PUSH2 0x1C PUSH0 CODECOPY PUSH0 RETURN INVALID PUSH1 0x80 PUSH1 0x40 MSTORE CALLVALUE DUP1 ISZERO PUSH2 0xF JUMPI PUSH0 DUP1 REVERT JUMPDEST POP PUSH1 0x4 CALLDATASIZE LT PUSH2 0x4A JUMPI PUSH0 CALLDATALOAD PUSH1 0xE0 SHR DUP1 PUSH4 0x3A9EBEFD EQ PUSH2 0x4E JUMPI DUP1 PUSH4 0x6D4CE63C EQ PUSH2 0x63 JUMPI DUP1 PUSH4 0x7CF5DAB0 EQ PUSH2 0x77 JUMPI DUP1 PUSH4 0xFE4B84DF EQ PUSH2 0x8A JUMPI JUMPDEST PUSH0 DUP1 REVERT JUMPDEST PUSH2 0x61 PUSH2 0x5C CALLDATASIZE PUSH1 0x4 PUSH2 0xBB JUMP JUMPDEST PUSH2 0x9C JUMP JUMPDEST STOP JUMPDEST PUSH0 SLOAD PUSH1 0x40 MLOAD SWAP1 DUP2 MSTORE PUSH1 0x20 ADD PUSH1 0x40 MLOAD DUP1 SWAP2 SUB SWAP1 RETURN JUMPDEST PUSH2 0x61 PUSH2 0x85 CALLDATASIZE PUSH1 0x4 PUSH2 0xBB JUMP JUMPDEST PUSH2 0xAE JUMP JUMPDEST PUSH2 0x61 PUSH2 0x98 CALLDATASIZE PUSH1 0x4 PUSH2 0xBB JUMP JUMPDEST PUSH0 SSTORE JUMP JUMPDEST DUP1 PUSH0 SLOAD PUSH2 0xA9 SWAP2 SWAP1 PUSH2 0xE6 JUMP JUMPDEST PUSH0 SSTORE POP JUMP JUMPDEST DUP1 PUSH0 SLOAD PUSH2 0xA9 SWAP2 SWAP1 PUSH2 0xFF JUMP JUMPDEST PUSH0 PUSH1 0x20 DUP3 DUP5 SUB SLT ISZERO PUSH2 0xCB JUMPI PUSH0 DUP1 REVERT JUMPDEST POP CALLDATALOAD SWAP2 SWAP1 POP JUMP JUMPDEST PUSH4 0x4E487B71 PUSH1 0xE0 SHL PUSH0 MSTORE PUSH1 0x11 PUSH1 0x4 MSTORE PUSH1 0x24 PUSH0 REVERT JUMPDEST DUP2 DUP2 SUB DUP2 DUP2 GT ISZERO PUSH2 0xF9 JUMPI PUSH2 0xF9 PUSH2 0xD2 JUMP JUMPDEST SWAP3 SWAP2 POP POP JUMP JUMPDEST DUP1 DUP3 ADD DUP1 DUP3 GT ISZERO PUSH2 0xF9 JUMPI PUSH2 0xF9 PUSH2 0xD2 JUMP INVALID LOG2 PUSH5 0x6970667358 0x22 SLT KECCAK256 0x4C SWAP8 GAS ADDMOD 0xE3 0xC5 ADDRESS XOR 0x4F 0x2E 0xCE DUP15 BALANCE 0x1F CODESIZE DUP12 LOG1 PUSH2 0x9619 0xD4 0x2D PUSH7 0x3952A5FA221B2F SELFBALANCE SWAP4 PUSH5 0x736F6C6343 STOP ADDMOD NOT STOP CALLER "
				},
				"gasEstimates": {
					"creation": {
						"codeDepositCost": "65600",
						"executionCost": "115",
						"totalCost": "65715"
					},
					"external": {
						"decrement(uint256)": "24481",
						"get()": "2266",
						"increment(uint256)": "24525",
						"initialize(uint256)": "22353"
					}
				},
				"methodIdentifiers": {
					"decrement(uint256)": "3a9ebefd",
					"get()": "6d4ce63c",
					"increment(uint256)": "7cf5dab0",
					"initialize(uint256)": "fe4b84df"
				}
			},
			"storageLayout": {
				"storage": [
					{
						"astId": 3,
						"contract": "contracts/counter.sol:Counter",
						"label": "value",
						"offset": 0,
						"slot": "0",
						"type": "t_uint256"
					}
				],
				"types": {
					"t_uint256": {
						"encoding": "inplace",
						"label": "uint256",
						"numberOfBytes": "32"
					}
				}
			},
			"userdoc": {
				"kind": "user",
				"methods": {},
				"version": 1
			}
		}
	}
}